:020000023000CC
:08808000FC7F00202DD003005D
:10809000064B0A0E5A700A0C9A700A0ADA7000220D
:1080A000187019715A711846704700BF3082FF1F4F
:1080B000244A25492DE9F041244D254E4FF4003442
:1080C000174614602E603B689B03FCD50B68DBB23F
:1080D000FF2BF6D0FE2B30D11A491C4FDFF870C0B1
:1080E000194D00234FF4003688460E60C7F800C0D3
:1080F000D8F80040134AA403FAD52C68C4540133BD
:10810000B3F5007FF1D14FF40033136010490F4BEA
:108110001960136813F4003F0A4BFAD00A4A0C485E
:1081200011684FF400311960084908601968890323
:10813000FCD513680020BDE8F0816FF00300BDE8B6
:10814000F08100BF2CC0024038C0024034C0024061
:10815000FF003F00314AF0B5314E324F324C4FF400
:108160000035944615603760DCF800102B4B89030E
:10817000FAD52168C9B2FF29F4D14FF400321A6050
:108180002A49274A11601A689403FCD5264A2349D4
:10819000234E13684FF4003500230F4614460D603C
:1081A000C25C42F47C123260D7F800C01B4A1CF457
:1081B000003FF9D00133B3F5007FD4F800C0EED111
:1081C0004FF4003313601749154B196011460B68C3
:1081D000124A13F4003FFAD0134B124819684FF4B7
:1081E000003111600E490860194610680B4B80037E
:1081F000FBD50A680B494FF400321A60084A116037
:108200001A689203FCD5084B1B6803F01F03052B6B
:1082100014BF6FF004000020F0BD00BF2CC002406E
:1082200034C00240FF003F0038C00240FE003F0063
:1082300010B5094C2046216800F002F958B963696D
:1082400093F8FE21552A02D06FF0020010BD93F87A
:10825000FF31AA2BF8D110BD4882FF1F38B50D4B56
:108260000D4D10221A600D4B01221A600446642144
:108270004D20022202F000FF1CB14FF400732B834B
:1082800038BD074801F0A4FB4FF480732B83054BE6
:108290001C6038BD84F00F404882FF1FA482FF1F7E
:1082A000B6E80300AC82FF1F2DE9F04F5D4D5E4C38
:1082B0002B6885B0174644F620629342064601912A
:1082C00005DD5A4801F084FB6FF0010691E0226859
:1082D00012B1062A42D08BE0554ADFF85891DFF8F8
:1082E00058A1DFF858C115214FF4003893460139E1
:1082F00000F08C80C2F80080C9F800A0DBF8000014
:108300008003FBD5DCF80000C0B2FF28EFD148495C
:108310002268DFF820C1DFF824914FF4003088464E
:10832000052A13DC086016F802A04AF47C1ACCF87F
:1083300000A0D8F800A01AF4003FFAD0D9F800A0A5
:108340005FFA8AFA8DF80FA00132E9E722602BB1BB
:108350004D20002102F05EFE00232B60236834498B
:10836000DFF8D090DFF8D0A0DFF8D0C001334FF4B1
:1083700000388B465A1E1A2A009305DD2B680133FC
:108380002B600623236043E0C1F80080C9F800A0F9
:10839000DBF800209203FBD5DCF800200198027086
:1083A000100603F10103E5D4009B236007B3317885
:1083B0001F4A204EDFF880C0DFF880900023492953
:1083C00014BF0421122123604FF4003090468B42E9
:1083D0000DDA1060C6F800C0D8F800A01AF4003F0B
:1083E000FAD0D9F800A007F803A00133EFE7236023
:1083F00000262B6833B14D20002102F00BFE094B03
:1084000000221A6000232360304607E001332B600E
:108410004D20012102F0FEFD4FF0FF3005B0BDE818
:10842000F08F00BFA082FF1F2882FF1FCFE803004C
:108430002CC0024034C00240FF003F0038C0024060
:108440002DE9F341254C236813F00202054601D0C3
:108450006AB93FE0028B5206214A43F002034FF013
:108460001000106023601F4B58BF49021960DFF8ED
:1084700074801D4FD8F800101A4E5120FFF708FEE7
:108480000DF107010022FFF70FFF431C3860F1D008
:10849000002808DB9DF80730ABB96869FFF708FED4
:1084A000114B186038B1114B10221A60236823F069
:1084B000020323600FE02B8B5F0602D433685B0A54
:1084C000336033682B60094B10221A60236823F055
:1084D00002032360002002B0BDE8F081AC82FF1FE0
:1084E00088F00F40B882FF1F9C82FF1F84F00F406E
:1084F000F7B51F4C1F4D2368174613F0020201D039
:108500006AB931E0028850061B4A43F002034FF07B
:10851000100010602360194B58BF49021960174EB4
:1085200031685120FFF7B4FD0DF107010022FFF77C
:10853000BBFE411C2860F3D00028114E06DA102340
:108540003360236823F0020323600EE09DF80730B8
:1085500023B93846FFF7ACFD064B18601023336093
:10856000236823F002032360286803B0F0BD00BF36
:10857000AC82FF1F4082FF1F88F00F40B482FF1FB4
:1085800084F00F4073B5204D2B6813F004020446AD
:1085900001D06AB935E0028B52061C4A43F004034D
:1085A0004FF0100010602B60194B58BF4902196042
:1085B000174E58203168FFF76BFD0DF107010022BF
:1085C000FFF772FE134B1860E0B99DF807308BB9C6
:1085D0006069FFF7BFFD28B10F4801F0F9F96FF0AE
:1085E00004000FE0238B5B0602D433685B0A336020
:1085F00033682360094B10221A602B6823F00403B0
:108600002B60002002B070BDAC82FF1F88F00F40CD
:108610001C82FF1F2482FF1FDCE8030084F00F4050
:1086200038B503688B4204460D4613D0038BD90737
:1086300009D520462168FFF7A5FF0130F9D0238B2B
:1086400023F001032383256020462946BDE83840F6
:10865000FFF7F6BE002038BD37B51C4C23680D4629
:1086600013F0040101D069B92DE0018849061849C9
:1086700043F004034FF0100008602360154B58BF0F
:1086800052021A60134B58201968FFF701FD0DF1D3
:1086900007010022FFF708FE0F4B1860A0B99DF8F4
:1086A00007304BB92846FFF755FD28B10B4801F0BC
:1086B0008FF96FF0040007E0094B10221A6023685D
:1086C00023F004032360002003B030BDAC82FF1F01
:1086D00088F00F40A882FF1F2C82FF1FDCE80300F8
:1086E00084F00F402DE9F04F9D4F80463868ADF57E
:1086F000057D002110F002008DF8061005D0994884
:10870000FFF79EFE441C00F017863B68D90700F176
:108710007F85954D2B68242B00F2A080DFE813F0B5
:108720002F002F0025008A00A400BF00CE00DD002E
:108730009E009E00F9009E009E009E009E009801F3
:10874000A001C9018A029E0011034D033A044604A8
:108750007704A504B2049E009E009E009E00CB04F8
:10876000FE04150561059E00FE02804A8048814C8A
:10877000DFF858E20B234FF40031164650E07E4BF1
:108780001A6842F480521A6053F8042C42F4805262
:1087900043F8042C794A4FF40071116053F8042C0B
:1087A00042F4805243F8042C754A4FF41071116062
:1087B00053F8042C42F4006243F8042C714A40F24E
:1087C0000321116053F8042C42F4006243F8042C96
:1087D00002201021402204F019FC6B4B1A6842F071
:1087E00010021A605A6942F010025A61674B684AD7
:1087F0001A60684A43F80C2C674B10221A6001215A
:1088000002232B604D200A4698E2D6F800C01CF4E3
:10881000003FFAD0DEF800C05FFA8CFC8DF807C08C
:10882000013B02D011600460EFE75C4B10221A603C
:1088300003232B605A480DF106010022FFF734FD97
:1088400028B1013000F0788500238DF806309DF8BE
:108850000630012B06D00020FFF700FD424C2425F6
:1088600000F02DBD04232B604E480DF1060104AA33
:10887000FFF71AFD002853D19DF80630012B09D1CE
:108880009DF81330AA2BE6D19DF81230012B1FD092
:10889000454800E0454801F09BF80120DCE74448EA
:1088A0000DF106010022FFF7FFFC002838D19DF8EA
:1088B0000630012B00F2A68406232B603D480DF103
:1088C00006010022FFF7F0FC50BB9DF8063013B103
:1088D000052300F096BC07232B6037480DF10601F5
:1088E00004AAFFF7E1FCD8B9344801F071F89DF80B
:1088F00010201C4B02F0400202F0FF011AB140228E
:108900001A832F4801E02F48198301F061F80A23E8
:108910002B602D480DF1060104AAFFF7C5FC18B124
:10892000013098D100F008BD0E4C0DF1120110225B
:1089300004F1380000F0F7FE9DF812309DF81900A0
:108940009DF81A109DF81B2013F0400F40D009022B
:1089500001EB0040024401329202226154E000BF68
:10896000AC82FF1F4882FF1FA482FF1F2CC0024061
:1089700034C00240FF003F003C80044004C004407B
:1089800008C004401CB0044080F00F400CC00240FE
:108990000706003E003C3F8084F00F4088F00F4007
:1089A00073EB0300B0E8030030EA030048EA030079
:1089B00085EB03007FEB03008BEB03006DEA030004
:1089C0007BEA03008BEA030079EB030038C0024026
:1089D0009DF81830800003F0030300EB832303EBC2
:1089E00091139DF81C1002F00302C90901EB420229
:1089F0000232013393409DF81720236102F00F02E9
:108A00000A2A04BF5B002361BB4800F0E1FF6369F1
:108A10002BB94FF4007002F09BF9B84B58610F234B
:108A200004214D202B6002F0F5FA002384F8483031
:108A3000B34B10221A60B34B1A6842F001021A605D
:108A4000B14A4FF03E4111601A6822F0010291E0F4
:108A5000AA4B00221A60FFF7EBFB421C00F06C846B
:108A6000C31C28D011232B6000287FF4F4AEA34A46
:108A7000536993F8C2011146C0B193F952004628D8
:108A800014D093F8C80193F8C911000400EB0160F9
:108A900093F8C71100EB012093F8C6114318136037
:108AA000FFF7C6FB461C04D100F046BC00230B6058
:108AB00007E0033005D1914B1A8B42F008021A836C
:108AC00097E38E4A516991F817E08B7D0E7B13EB8B
:108AD0000E2E4FEA062611D191F826E091F82730A4
:108AE0004FEA0E4E0EEB036E91F825300EEB032E7F
:108AF00091F824304FF0010A9E4401E04FF0000A43
:108B00000D7DCB7C13EB05250DD191F8225091F80A
:108B1000233091F821002D0405EB036591F82030F6
:108B200005EB00251D44C2F81CE091F810B0D2F806
:108B3000009082F82AB04B7B82F82B30CC7B887B6C
:108B400000EB042080B200EB090CB6F5007FC2F800
:108B500020C06A4C05D323B106FB03F2B2F5004FE7
:108B60000ADD6A4800F034FF238B43F008032383B7
:108B7000674B32221A6071E60BFB0EF2B4F818E074
:108B800026852EF0080E1FFA8EFE4EF0200BA4F85C
:108B900018B000EB020BCBEB050BBBFBF3FB4FF666
:108BA000F476B3450CD8BAF1000F09D14EF4804EDB
:108BB0004EF0200E0126A4F818E0666024311BE078
:108BC00091F831E091F8306091F82FA006EB0E2675
:108BD00091F82EE04FEA0E4E0EEB0A6E91F82DA0A2
:108BE0000EEB0A2E91F82CA019FA86F6D644C4F89A
:108BF00004E0E66226604031281A801AB0FBF3F0E8
:108C000060626068624400FB1323A260228BE36011
:108C1000550402D539481F33C36007310B223D4844
:108C200000F081FD3A4B12221A60FFF701FB441C51
:108C300000F08283314C00284BD1228B500448D461
:108C4000636993F8FF11AA2943D193F8FE115529BE
:108C50003FD1D97841293CD19978612939D15978C6
:108C6000522936D11978522933D193F8E711612965
:108C70002FD193F8E61141292BD193F8E5117229F0
:108C800027D193F8E411722923D193F8EA1193F8CC
:108C9000EB0193F8EE51090401EB006193F8E9014F
:108CA00001EB002193F8E801014493F8EF012163FF
:108CB0002D0405EB006593F8ED0105EB002593F815
:108CC000EC0102392B188B42636302D842F0040294
:108CD0002283114800F07CFE238B074843F0800379
:108CE000238300F075FE3B6843F001033B60084BB3
:108CF00013221A601FE000BFF2E803004882FF1F42
:108D000084F00F4000C002400CC0024096EA03000D
:108D1000A482FF1F9182FF1FA3EA0300C8480168D5
:108D2000FFF78EFB00287FF496AD13232B603B6882
:108D300043F001033B604D20C821042202F09CF95E
:108D40008CE5DFF8FC92D9F81440D9F810600021C6
:108D500020464FF4007200F0DEFC022384F8BF319D
:108D60000C2384F8C0310B2384F8C231382384F8F3
:108D7000C331F82384F8C431B8233F3E84F8C531A9
:108D80003F2384F8C631330A84F8CB31330C84F89E
:108D9000CC31552384F8CA6184F8FE31360EAA23FB
:108DA00084F8CD6184F8FF3148460021FFF7EAFBE3
:108DB000002840F01B8215232B60A14EDFF898B2EB
:108DC00074694FF4FE720021204600F0A4FCEB23EE
:108DD0002370582363709023A3709A49E01C00F01D
:108DE00035FE4FF4007333850023E372F82002222E
:108DF0003F23227323766075308BFF2110F4804F60
:108E0000A17636D03369A2741A0A3C202275A3F1E8
:108E1000080A40F201126070BAFBF2FA0820A0734F
:108E2000BAF1FE0F4FF001002074E37404D9062359
:108E3000E37421754FF0FE0A0023E375012384F8E3
:108E400016A086F82B30552384F8FE31AA2384F827
:108E5000FF310AF10803B36004F136007A490822B1
:108E600000F061FCB368CBF800A004F124091F33C3
:108E700058E030692377A0F13F03190A84F82110E4
:108E8000190C227484F822102022190EB3F5022F37
:108E9000A27384F8203084F8231001D8012310E055
:108EA000B3F1807F01D808230BE0B3F1007F01D834
:108EB000102306E0B3F1806F02D886F82B2002E081
:108EC000402386F82B3096F82B10012202EBC111BB
:108ED000A0F160030B44B3FBF1F3190A84F82510E9
:108EE000190CCBF8003084F8243084F82610190EC1
:108EF0005B005F3384F8271084F8302002210622BB
:108F000084F82C1084F83220B360082204F1520057
:108F10004E4900F008FC96F82B20B36804F1400994
:108F2000A3EB4203F36096F82B306373802389F838
:108F30000030292389F8023002F01AF889F803007A
:108F400002F016F889F8040002F012F889F805001A
:108F500002F00EF889F8060096F9493033B909F1A4
:108F600007003B490B2200F0DEFB11E0002320212B
:108F7000F21809EB030092F84920C2712AB909EBF3
:108F8000030201330B2BD171F9D101330A2BEFDD31
:108F900016232B602A48038B590405D43F21FFF781
:108FA000F1FA002840F0228117232B60DFF890901F
:108FB000B9F8183013F4804F48460CBF4521002102
:108FC000FFF7E0FA064608B1461C10E1D9F8144054
:108FD00031464FF40072204600F09DFB09F1490133
:108FE0000B22204600F09FFB0823E37244236376A4
:108FF000E3746374174BA675212260211E60182349
:10900000E1752276A274A673E17322742B60114C71
:109010000B4E236896F82B2093421FD2B16830463E
:109020001944FFF7AFFA0146002839D12368706967
:1090300001334FF40072236000F06DFBE2E000BFEB
:109040004882FF1FB2EA0300BBEA0300C4EA030040
:10905000CDEA03002082FF1F4482FF1F19232B60EB
:1090600000232360A54B01221A70A54B1A8B586967
:1090700052044BBFA349A44904220C2200F053FB25
:109080001A232B609E4BA14C1B8B21689C4E5B04CA
:1090900054BF5F3108213046FFF774FA014608B12A
:1090A0000131A4E070690C2200F035FB2368013324
:1090B00023601F232B609148954C944B02782468C1
:1090C00019685443A1421C4615D3012A03D8013222
:1090D0000270192395E08A48028B960409D522F480
:1090E00000540483540454BF5F31083119602023B5
:1090F00087E0212385E0824B1B8B580454BF5F31EE
:1091000008317F48FFF73EFA00286FD1236801330A
:1091100013F0FF0F236075D17E4813E07B4C784835
:1091200021680369994202D321232B600DE0FFF7E8
:1091300029FA00285AD12368013313F0FF0F236066
:1091400060D1754800F044FC5CE06D4C228B02F469
:10915000804292B20AB1714850E06D4821690068BE
:10916000636940005F39091A94F82B0083F8ED21F8
:10917000B1FBF0F141200139D87083F8E60172208B
:1091800083F8E50183F8E401080A83F8E81183F81D
:10919000E90183F8EE21080C83F8EF21090EAA22D9
:1091A00061264FF0520E83F8EB1183F8FF21032163
:1091B000552283F8EA0183F8EC119E7083F801E0F0
:1091C00083F800E083F8E76183F8FE212046402120
:1091D000FFF7D8F950B922232B60238B43F0040307
:1091E000238347484621FFF7CDF930B1013000F025
:1091F000A38032232B60FFF731BB494800F0E8FB26
:109200000F232B604D20042101F004FFFFF726BB44
:10921000D9067FF523AB4348394905680A6A954268
:10922000814638D302F10A039D42DFF8D4A03E4CB8
:1092300034BFC2EB05050A25002DE3DBD9F8001089
:109240003A4804AE4B1E3246C9F80030FFF750F9D9
:10925000F8B9BAF8183003F480439BB20BB922680E
:109260000FE0236832580AB9023304E091B209B121
:10927000120C00D101330430B0F5007FF2D123602D
:1092800007E0F15801B901320433B3F5007FF8D19A
:109290002260013DD0E7264A264C23F010031360DC
:1092A000214B94F900001B680B63BF2100F0AAFB5F
:1092B00000232370FFF7D2BA9DF80B3043B198F822
:1092C0000E0002A9052200F0A3F80028F4D133E033
:1092D0009DF80C20042AF2D12368132B05D13B689A
:1092E000256023F001033B6003E04D20C82101F01D
:1092F000C3FE4D20042101F08DFEE0E73C82FF1FFC
:109300004882FF1FACE8030067EB03002082FF1FC9
:109310004482FF1FD9EA0300DBEA0300DDEA030011
:10932000F6EA03003882FF1FBC82FF1F6082FF1F26
:10933000AC82FF1FB082FF1F0DF5057DBDE8F08FE9
:109340000B46094910B5542404FB001023B91146FB
:10935000BDE81040FFF764B9114618301A46BDE861
:109360001040FFF7C5B800BF4882FF1F084B70B51B
:10937000542606FB00300D46144600F1180622461E
:1093800030462946FFF768F9421CF8D070BD00BF8F
:109390004882FF1F024B542202FB0030704700BF7F
:1093A0004882FF1F37B50138C5B2054804682B0154
:1093B000E018007B0095E4580323A04703B030BDBC
:1093C000C482FF1F08B5044B1870000101F0C0FCF7
:1093D000024B186008BD00BFC082FF1FC482FF1F80
:1093E000FF2873B50E460DD008490138C5B20C6888
:1093F0002B01E118087B0095E45811460223324600
:10940000A04700E0002002B070BD00BFC482FF1F73
:1094100037B50138C5B2054804682B01E018007B58
:109420000095E4580423A04703B030BDC482FF1F59
:10943000074A13B501381268C1B20B01D018007B7E
:1094400000910021D4580A460523A04702B010BD60
:10945000C482FF1F37B50A4606490138C5B20C68F9
:109460002B01E118087B0095E45800210623A04752
:1094700003B030BDC482FF1F30B50C4B1D780C4BC0
:109480001B6800221033AA420ED053F8104C8442BD
:1094900002F1010205D113F8044C8C4201D1D0B283
:1094A00030BDD2B21033EEE7002030BDC082FF1FC6
:1094B000C482FF1F2DE9F74F054610468B469246A2
:1094C0001C46FFF7D9FF014608B1002040E0FFF736
:1094D000D3FF06460028F8D01F4B00F18058D3F880
:1094E00000902B8808F1FF384FEA081809EB0807AD
:1094F000ABB1204601F02CFC0346786078B12A8895
:1095000010468DE80C0001F023FC9DE80C000028BB
:10951000DBD01860586098601044D860DA826B889D
:109520008BB1204601F014FC0446B86058B16D8838
:10953000284601F00DFC0028C7D020606060A060C4
:109540002844E060E58249F808A0304687F80CB06E
:1095500003B0BDE8F08F00BFC482FF1F032807B52A
:1095600006D0052812D0A8B9104600F01DFB12E065
:109570001389ADF804300023ADF806301368074AAC
:10958000197801A81823FFF795FF04E0104600F0B2
:10959000E1FF00E0002003B05DF804FBA9970300A1
:1095A0002DE9F043CE0604D52023137001F0FB0112
:1095B0000132CD0705D5002803DA2D231370404270
:1095C000013201F0020701F0040C2D4B00240A26A1
:1095D000FFB25FFA8CFC4FF0200810B90A2030254A
:1095E00026E0302583420ED9B3FBF6F314B9012BE4
:1095F000F8D10FB1157004E0BCF1000FF2D082F881
:1096000000800132EEE7B0FBF3F505F13009EDB271
:10961000002B18BF012482F8009003FB15000132D3
:10962000B3FBF6F3D9E734B102F8015BB3FBF0F317
:10963000002BF8D18CB911F0040F134602F1010090
:1096400003D002462020187007E08C0702D502469E
:10965000302018703023137001320B0706D51346E3
:109660000D2003F8020B0A2050701A4601F0400149
:1096700001F0FF0301B913701046BDE8F08300BF8D
:1096800000CA9A3BCB062DE9F04102D52023137086
:1096900001320F0606D51346302403F8024B782416
:1096A00054701A4601F0400601F0200801F0080C41
:1096B00001F00701042928BF04214900F6B25FFA2E
:1096C00088F85FFA8CFC17460B46013BDBB2FF2B98
:1096D00014D09D0020FA05F505F00F0505F13004C2
:1096E000392C08D9B8F1000F02D005F1370402E097
:1096F00005F15704E4B207F8014BE6E75018BCF156
:10970000000F04D00D2353540A234370023006B9CE
:109710000670BDE8F08102440346934202D003F88C
:10972000011BFAE7704710B50023934203D0CC5CCD
:10973000C4540133F9E710BD2DE9F843058A4768A1
:10974000AA4238BF154604460E463DB3C3687A198F
:109750009A42426015D3C7EB03081FFA88F80368E2
:10976000C8EB05094B44436001F030FF8EB1394628
:1097700042463046FFF7D7FF06EB080021684A460D
:1097800005E001F023FF26B1304639462A46FFF7AF
:10979000CAFF01F013FF238A5B1B238201F016FF2F
:1097A0002846BDE8F8830000F8B51D460F4616466A
:1097B0009DF8184001F002FF052D0ED0062D13D0A4
:1097C000042D1CD1104B1B6803EB04143946606850
:1097D0003246BDE8F840FFF7AFBF0B4B1B6803EB09
:1097E000041463681C8A0BE0074B1B6803EB04142A
:1097F00063681A6800249A605A601C8200E00024A2
:1098000001F0E4FE2046F8BDC482FF1F2DE9F041BF
:10981000044615460F4601F0D1FE218A628AE38A8A
:1098200088182844984202DD5D1AAD1AADB22A4468
:10983000D4F808806282E26808EB05069642A660CA
:1098400006D3F31A2668A3609E1BAE1BB6B200E0D7
:109850002E4601F0BBFE404639463246FFF763FF15
:10986000B54204D02068B919AA1BFFF75CFF01F0CC
:10987000A5FE638AA28AAB4206D1238A2B441A44EE
:1098800000232282A38202E02A44A2825B1B63821D
:1098900001F09CFE2846BDE8F0810000F8B50446C2
:1098A0000D46002937D1027843789A4262D101F0FF
:1098B00085FEA178314B32481970FFF7DDFD314943
:1098C0000646087010B901F081FE55E02E4B18686D
:1098D00000EB0616207956F80C3C1A8A561D0644F1
:1098E000D88A864203DD0D7001F070FE42E0063238
:1098F0001A8228469A68511C9960215C1170DA68B6
:109900009968914228BF1A6800F1010028BF9A6047
:109910000628EFD1F8BD1B4B1E7866B90278437854
:109920009A4229D1877816483946FFF7A5FD0646A1
:1099300010B3FFB205E0114A177800221A7001F047
:1099400045FE114B1868E37800EB0616032B56F81A
:109950000C0C04D1C28A038AD01A80B2F8BD214609
:109960002A46FFF753FF0421044678B201F052FB68
:109970002046F8BD2846F8BD3046F8BDC282FF1F1C
:10998000A9970300C182FF1FC482FF1F30B528B909
:109990000846BDE830401146FFF780BFFF2803D0DE
:1099A000BDE83040FFF7FEBC002030BD10B50346D7
:1099B0000446E21A14F8010B92B20028F9D12AB138
:1099C0000846BDE810401946FFF7E0BF104610BD3D
:1099D000014B1978FFF7EABFF081FF1F1FB56A46F8
:1099E000FFF7DEFD6846FFF7F3FF05B05DF804FB07
:1099F0001FB56A46FFF746FE6846FFF7E9FF05B068
:109A00005DF804FB07B5002370B18DF800308DF8C8
:109A100001308DF8020001238DF8041068460521FD
:109A20008DF80330FFF73AFF03B05DF804FB30B563
:109A30000023934208D0C45C0133CD1815F8015CB3
:109A4000A542F6D0012030BD002030BD0A78034683
:109A500003F8012B11F9012B0AB11846F6E77047FC
:109A60000023C2560AB10133FBE7184670470000D5
:109A7000F7B591F82C309A0706460C4611D0DB0753
:109A80004CBF1121132102F023FFC0B2002870D176
:109A900094F82C3023F0030343F0400384F82C3077
:109AA00067E003F0200202F0FF0E002A5FD10F8B67
:109AB00027B923F0400381F82C3058E0CA681178A8
:109AC000A26A12F480651AD003F0040202F0FF05C6
:109AD0002AB123F0040384F82C3075460FE094F883
:109AE0002E20914205D094F82D00884207D1012FF5
:109AF00005D043F0040384F82C301146012530468C
:109B000002F0E6FE23680133236094F82C3043F022
:109B1000400384F82C3065BBE368626901339342EB
:109B2000E36028BFA368228B28BFE360124B53F881
:109B30002630013A998C94F82F3092B22283C3B127
:109B40008A4216D800258DF8023001238DF80330A3
:109B50002846DD23694605228DF800508DF8015016
:109B60008DF80430FFF712FF84F82F5001E002F067
:109B7000A5FE03B0F0BD00BFE082FF1F38B505466B
:109B8000302001F0E5F8044608B9002038BD284629
:109B900001F0DEF8A0600028F7D043192061E060F2
:109BA0006361E583204638BD2DE9F84304460E463F
:109BB0003948217AFFF760FC0146054610B170076D
:109BC00005D463E0FFF758FC0546002861D005F195
:109BD0008053324A30491268DFF8C880013B1B01CC
:109BE00016F0020F02EB0307D15007D0E08894F87B
:109BF0000890FFF7C3FF48F82900B86016F0010F7E
:109C0000274E06D0A088FFF7B9FF237A786046F880
:109C10002300237A58F8233063B12268E1889A62DE
:109C2000227A204B53F82230A27B4A43642192FBD4
:109C3000F1F29A84227A1A4B56F82220FAB1217B4B
:109C400082F82F10A188227A667B53F822004E43B7
:109C5000642296FBF2F64684207AA67B53F8200015
:109C6000714391FBF2F28284227A53F82210226827
:109C70008A62217AA27A53F8213083F82E20237A3F
:109C80003B73207A214602F0F5FE02E00846BDE86B
:109C9000F8832846BDE8F883759E0300C482FF1F41
:109CA000C882FF1FE082FF1F654B2DE9F04153F88A
:109CB0002140644B53F82150A36A1A0506460F460B
:109CC00014D594F82C20500706D522F0040284F80D
:109CD0002C204FF0000814E094F82E10B14205D16A
:109CE00042F0040284F82C20BDE8F08113F08008D3
:109CF00007D094F82D80B8EB0601D1F1000858EB9D
:109D000001089A061DD5132E0AD195F82C3043F080
:109D1000200385F82C306B6801336B60BDE8F0815F
:109D2000112E0ED195F82C30980640F1878023F043
:109D3000200385F82C3038462946BDE8F041FFF76E
:109D400097BE2268D90402F10102226019D52A8B3C
:109D5000EB8B9A420CD82B691E702B696A69013310
:109D600093422B6124BFAB682B612B8B01332B8378
:109D700095F82C3013F0600F03D138462946FFF7D1
:109D800077FE238BE28BB8F1000F3CD19A420BD9BE
:109D90000133238323691E7023696269013393426F
:109DA000236124BFA3682361A36A13F0600F23D04B
:109DB00094F82C20D2061FD4218B628C91421BD3A5
:109DC0009E060AD595F82C3043F0020385F82C3016
:109DD00038462946FFF74CFE05E038464FF400713F
:109DE000AA6A02F087FD94F82C3043F0100384F83F
:109DF0002C30636801336360A26A48F28003134029
:109E00009BB1BDE8F081218C9A4201F101012184CE
:109E10000BD90133238323691E70236962690133DF
:109E20009342236124BFA368236194F82F0028B1D3
:109E300040B20421BDE8F04101F0ECB8BDE8F0818A
:109E4000C882FF1FE082FF1F094B53F8203093F8B0
:109E50002C2041B191060AD522F0200283F82C2053
:109E60001946FFF705BE42F0200283F82C20704708
:109E7000E082FF1F2DE9F843984606460D4614463A
:109E80009DF8207001F09AFBA8F10203082B00F264
:109E90001381DFE813F00900630087005500E0003C
:109EA000110111011101BC00864B1B683FB203EB8D
:109EB000071715F4805F14BFBF687F68002C3DD082
:109EC000220605D530462146BA6A02F013FD35E078
:109ED00063050BD521463046BA6A02F03FFE0546BF
:109EE000C5F300213046FFF7AFFFE6E0E00703D5FA
:109EF000304602F027FC04E0A10702D5304602F00C
:109F0000D3FC620703D5304602F060FB04E0230770
:109F100002D5304602F00CFC14F0100FBB6A02D0E0
:109F200043F4805303E0A60602D523F48053BB62BA
:109F3000600644BF05F07F0587F82F503D8DBCE0DB
:109F4000604B1B6803EB071748F280027B68996A35
:109F50000A400AB11D8CB0E01D8BAEE0594B1B6866
:109F600003EB0717BF683DB9FD8B3B8BED1AA5428C
:109F7000C0F2A280ADB2A0E001F028FB2946224643
:109F800007F10800FFF742FC054601F017FB97F8C0
:109F90002C3013F0600F40F0908030463946FFF7C8
:109FA00067FD8AE0DFF81C91D9F800304FEA071806
:109FB000434429465F68224607F10800FFF7BCFBCF
:109FC000BA6A12F0600F054679D097F82C30D9069E
:109FD00075D5388BB98C884271D823F0100387F877
:109FE0002C3097060DD5D9F8007047443046B96833
:109FF00091F82C3043F0010381F82C30FFF738FD45
:10A000005DE030464FF4807102F074FC57E02D4B58
:10A010001B683FB2012C03EB071704D9023CBB6855
:10A02000A4B27DB902E07B6865B907E0012C05D9CF
:10A030001D605D607B681D605D603EE0002543F84B
:10A0400024503AE003EB84040023E25CEA54013339
:10A05000042BFAD130E03FB21A4D24B12B6803EB48
:10A060000717BB6821E02A683F013A44536893F818
:10A070002C10CC0619D521F0100183F82C10916812
:10A080008A6A900609D591F82C3043F0010381F8D3
:10A090002C303046FFF7ECFC04E030464FF4807182
:10A0A00002F028FC2B681F447B689A6800251A611F
:10A0B000DA601D831D8400E0002501F087FA284640
:10A0C000BDE8F883C482FF1F024B53F82010FFF74E
:10A0D000CFBC00BFE082FF1F40B1836993F824200A
:10A0E000501C83F8240003EB42039983704711F05E
:10A0F000010F30B500F1020408D00578134623F8AB
:10A10000025B407845EA002515801A4611F0020FDF
:10A1100004F1020008D02578134623F8025B647826
:10A1200045EA042515801A464B0705D503781380A8
:10A13000417843EA0123138030BD00002DE9F84344
:10A140009946374B089E1B68282404FB09340746B0
:10A15000E38A002B61D1A58AF36822838A4234BF47
:10A1600090468846A84538BF4546A4F816806582C3
:10A170001860B1682B484A6873684FEA054E42F090
:10A1800080020EEA0000104318604B68E06883F01C
:10A1900040034B608B6883F040038B602946FFF7D8
:10A1A0009BFF6760E28A638A9A4206D0E3683BB10C
:10A1B0009B6993F82430012B02D9E08ABDE8F8832B
:10A1C0004846314602F03CF80028F6D1F3681548BD
:10A1D0002F44C5EB0808A58A1F60B16873684A68F8
:10A1E0001FFA88F8A84538BF45464FEA054E42F0A9
:10A1F00080020EEA0000104318604B68E06883F0AC
:10A2000040034B608B6883F040038B602946FFF767
:10A2100063FF638A2B446382C4E70020BDE8F883B0
:10A22000FC82FF1F0000FF032DE9F04188B01D46AE
:10A2300080460E4617469DF8384001F0BFF9AB1E28
:10A24000042B00F2A180DFE803F00323701C9000D0
:10A25000524B1B6824B203EB041416F4805F14BF46
:10A26000A36863687C0608D59A6992F82110C8072C
:10A2700044BF06F07F0682F820609B6993F8214076
:10A2800085E0464B1B6803EB041463681C8A7EE080
:10A29000424B1B6803EB0414A5685DB903AC404650
:10A2A000214601F0CDFF18B900943046394636E01A
:10A2B0002C466CE0AB6993F8214014F0010466D0A1
:10A2C00036B9EC8A2B8AE41ABC425FDBA4B25EE0AA
:10A2D00001F07CF931463A462846FFF797FA0446E2
:10A2E00001F06CF9AB6993F8213059064FD403AEF5
:10A2F0004046314601F0A4FF002848D16B68EA6867
:10A30000D21AAB6993F8211041F0400183F8211073
:10A3100092B20096944228BF14466868A1B20A46D9
:10A320004346FFF70BFF044631E01C4B1B6803EB71
:10A3300004143A46656831462846FFF7FDF9AB69D3
:10A3400093F821305A07044623D501F037F9AB6959
:10A3500093F8212022F0040283F82120AB69987E33
:10A3600002F032F80028F9D011E00C4B1B6824B23F
:10A3700003EB04140FB1A36800E063681A680024BB
:10A380009A605A601C8202E0002400E0344601F02A
:10A390001DF9204608B0BDE8F08100BFC482FF1F50
:10A3A0002DE9F04F87B007460DF11600884691461B
:10A3B0001E4604F05BFA00244FF0010B0178BDF853
:10A3C0001620521A92B2ADF8162043780192042B4F
:10A3D00010D0052B20D0022B45D14379BB4205D0AC
:10A3E000D7F1010438BF0024002C3CD001244FF0E9
:10A3F000000B38E0002C36D0B8F1FF0F02D0837884
:10A40000434530D1B9F1FF0F02D0C3784B4529D174
:10A41000002E31D0022426E02CB326B3A51ED5F1A0
:10A42000000C5CEB050C35462B68B3B19A7890F8BC
:10A4300002A082EA0A0252060DD1BCF1000F12D12D
:10A4400093F805C01B7943EA0C23B5F804C09C457A
:10A4500009D2AB8007E00835E6E7BCF1000F02D077
:10A46000286000E00324019B0844002BA6D1BBF127
:10A47000000F0CBF3046002007B0BDE8F08F37B5A5
:10A48000836993F820300546BBB1028A8A4214D80A
:10A4900000248DF8023001238DF803302046DD239F
:10A4A000694605228DF804308DF800408DF8014092
:10A4B000FFF76CFAAB6983F8204003B030BD0000B1
:10A4C000F8B504468078E77866790B4600F07F019E
:10A4D0000AB2550105EBC2020A4D2D6815442279D6
:10A4E00020F07F00384342EA062201F0DFFEE378E5
:10A4F0000BB9112303E095F8223043F0010385F8EE
:10A500002130F8BDFC82FF1F00F07F0138B5104AF2
:10A510000BB25C0104EBC30314681C440022134615
:10A52000E568FF2001F0C2FE002384F82130E382B9
:10A5300084F824301DB12B822B68AB606B60A3685C
:10A5400023B100221A821A689A605A6038BD00BF8F
:10A55000FC82FF1F2DE9F04105462A4FA97B2A4ABC
:10A560003C6804301C23FEF7A5FFAE7B80466EB12D
:10A5700036B2730103EBC6063444AB89A3826B8900
:10A58000DE0614D5202384F8223010E06B7C2820CE
:10A590000133584300F0DCFB08238382AB7C386036
:10A5A000044680F820302946304601F04DFF174A16
:10A5B00008F180531268013B02EB03129368E360D9
:10A5C00013B19C612B892382AB7BA376AB7B6BB1F0
:10A5D000EB7B5BB119B24C0104EBC1013C680C444C
:10A5E000A376AB7B84F82330AB89A3825368A36046
:10A5F0001BB19C61AB7C84F820302B684046236003
:10A60000BDE8F081FC82FF1F29A20300C482FF1F66
:10A61000F8B51546194A0E461168282250430C1801
:10A620000F5817B9A06838B9F8BD304629461A4600
:10A63000B847072820D1F5E794F8200018B140B2B8
:10A64000042100F0E7FC94F82120A36802F0040143
:10A6500001F0FF0779B9D88A198A411AA94206DBA5
:10A66000184631462A46FFF7D1F83846F8BD42F081
:10A67000040284F821200120F8BD00BFFC82FF1FE6
:10A68000F0B5A1B00E468022002105466846FFF7CE
:10A6900042F83046FF2100226B46FFF781FE40B3AF
:10A6A000154F00245DF8040020B355B91EB9807819
:10A6B000FFF72AFF1BE000AB23449988FFF700FF58
:10A6C00015E0837803F07F035A0102EBC3033A6875
:10A6D0001344012D93F821200BBF22F0010222F038
:10A6E000020242F0020242F0010283F82120083403
:10A6F000D8E7012021B0F0BDFC82FF1F2DE9F04317
:10A700009446A5B00D461E4606282AD8DFE810F06C
:10A710000F016D0268020700740282028802A04BDA
:10A720001B68282707FB0C37FC8AFD681CBBC5B1DA
:10A730002C8AC4B16A68EB689A4202D3E98A521A39
:10A740006A606868191A89B2A14228BF214600963A
:10A750000A466346FFF7F2FCAB692846198AFFF701
:10A760008EFE002465E2AB6993F8212022F04002BE
:10A7700083F821205DE27B8AA342C0F09D80002DFA
:10A7800078D02B8A002B75D0AA6992F82410908B70
:10A79000012901F1FF31C8BFB2F81EE082F8241090
:10A7A000C0EB0303A969C8BFA2F81CE09BB22B82CF
:10A7B00091F824206FF0010E501C01EB420800229A
:10A7C0000EFB00F09646023A824207D008EB0209DF
:10A7D000B9F81C90CE441FFA8EFEF4E7734535D1CC
:10A7E000002BB9D1BCF1000F04D097F8212012F052
:10A7F000300F17D0BB8AB4FBF3F203FB12439BB2BA
:10A800007BB9B36870685A6842F0880202605A687F
:10A8100082F040025A609A6882F040029A600123F6
:10A8200000E000236A681444EA686C60944202D332
:10A83000EA8AA41A6C600022FA82002B8CD191F86B
:10A84000213023F0400381F8213085E76A68E96808
:10A8500014448C426C6002D3EA8AA41A6C60686863
:10A86000091ACEEB030389B28B42B8BF99B2002319
:10A87000FB826CE7BB8AB4FBF3F203FB12439BB28F
:10A88000BBB93B8BA34206D1BCF1000F11D097F8A6
:10A890002130DB060DD4B36871685A6842F0880233
:10A8A0000A605A6882F040025A609A6882F0400258
:10A8B0009A600024FC82BCE1E41ABA8AA4B29442F1
:10A8C00028BF1446A5B1AB6993F82420998B012ABF
:10A8D000C8BFD88B02F1FF3283F82420C8BF988309
:10A8E0002B8A5B1A2B82AB692846198AFFF7C7FDB2
:10A8F000798A7A68F3680A441A60B36871685A689A
:10A9000042F08000274A2604324002430A605A6817
:10A9100082F040025A609A6882F040029A602146B2
:10A920002846FFF7D9FB7B8A1C447C8219E70C7808
:10A930001B4B24F08004D3F800800027012CA8F8DA
:10A940001670994600F08980022C00F0F880002CE7
:10A9500040F03F814B78092B74D8DFE803F06B732C
:10A96000737373380573673B8B78C878CF7943EA84
:10A9700000208B7943EA072700F47F43B3F5007F7B
:10A9800009D0B3F5407F0FD0B3F5807F18D104A86C
:10A9900003F066FF0FE004A803F068FF0BE000BFC0
:10A9A000FC82FF1F0000FF03C0B204A903F064FF94
:10A9B000002800F03D81BDF8101000963A463DE0B9
:10A9C000D8F80030002B00F03381481C40E08B7831
:10A9D000B37429E08978994E00203170FFF750FE5A
:10A9E000044610B10023337022E1D9F8003093F807
:10A9F0002060CEB1A91C01220DF11600FEF793FED6
:10AA000075238DF8133002238DF814302046FE2371
:10AA100004A907228DF810408DF811408DF81260BE
:10AA20008DF81530FEF7B2FF032402E1009683484B
:10AA3000012102E08248009602210A460023FFF726
:10AA40007DFBF6E0D8F80030002B00F0F1800846DE
:10AA5000318A002298470446EBE091F80190B9F161
:10AA60000A0F01F1020044D0B9F10B0F04D0B9F183
:10AA7000000F40F0AE8058E0704D2B78002B00F0B6
:10AA8000D780032103AAFFF732FB9DF80E40394619
:10AA9000802204A8FEF73FFE28782146FF2204AB5F
:10AAA000FFF77EFC083704AB3B4453F8084C1CB15D
:10AAB000A078FFF729FDF5E79DF80E709DF80C6072
:10AAC0002146802204A8FEF726FE28783946324621
:10AAD00004ABFFF765FC002800F0AA80083404AB43
:10AAE000234453F8080C00289ED00021FFF7E8FC0F
:10AAF000F4E7524D2B78002B00F09A80022104AA33
:10AB0000FFF7F5FA28789DF8101022463B46FFF72C
:10AB100047FC002800F08C80214622460096033036
:10AB20003B46FFF70BFB3C4683E0444B1B78002B76
:10AB30007ED00221009643480A464B463EE04F78BD
:10AB4000012F3ED8881C04AA2146FFF7D0FA3B4BC0
:10AB5000BDF810001B780BB9002869D1282300F03C
:10AB60001F0203FB0282012F92F8213018D11F0728
:10AB70007FF5F7AD23F0080382F82130D8F80030D4
:10AB8000002B3FF4EEAD24ACC0B204F8840D01F00C
:10AB900029FBD9F8003020461B680021042259E720
:10ABA00003F0080202F0FF03009622B102212648BA
:10ABB0000A46002302E0022122480A46FFF7BEFAB5
:10ABC000CFE5D8F80030002B32D008460322082108
:10ABD00040E7D8F800305BB32846318A3A4639E777
:10ABE0001A8A12B96046022303E0328A6046294677
:10ABF0000123FFF70DFD2EE79B7C33B1134B1B6840
:10AC0000CC2193F92000FEF7FDFE00200146FFF75E
:10AC100037FDA6E50D4B1B68CB2193F9200004E01E
:10AC20000A4B1B6893F92000CA21FEF7EBFE98E55A
:10AC30000424204625B0BDE8F08300BFFA82FF1F40
:10AC4000F882FF1F94EB030092EB0300FC82FF1FCE
:10AC5000054B1B68282202FB003090F82130194375
:10AC600080F82110704700BFFC82FF1F034B1B6858
:10AC7000282202FB003090F823007047FC82FF1F5F
:10AC800000F0AEBC70B515460204044649BFC0F3DF
:10AC90000E0401200020A4B20E4601F0DFFF30B107
:10ACA000214632462B46BDE8704002F001B84FF015
:10ACB000FF3070BD022810B504D003280DD0012844
:10ACC00016D10BE0002001F0C9FF88B1002160F02F
:10ACD0007F00C0B20A460B4606E0002001F0BEFF2E
:10ACE00030B1002201211346BDE8104001F0FBBF46
:10ACF0004FF0FF3010BD0000014B1860704700BFDF
:10AD00000083FF1F0E4B13B500221A800D4B0E4A15
:10AD100019600E4B147819601A460378A34202D0CA
:10AD200063B10430F9E74388194411600DF107035A
:10AD30005522994202D801F8012BFAE702B010BD62
:10AD40000883FF1F0483FF1FFF81FF1F0C83FF1F6A
:10AD5000F8B5104A104B11681C880C4414F0030F0E
:10AD600017460E4A1CBF24F00304043412681E4622
:10AD700023189A4205460AD92A4620460021FEF7A2
:10AD8000CAFC3B68E31A1D4435802046F8BD00200C
:10AD9000F8BD00BF0483FF1F0883FF1F0C83FF1F44
:10ADA000F8B5104A104B05461C8810680444481E2C
:10ADB000044217461E4602D04B421C400C440B4A2C
:10ADC000126863199A420AD92A4620460021FEF7E2
:10ADD000A2FC3B68E31A1D4435802046F8BD0020E4
:10ADE000F8BD00BF0483FF1F0883FF1F0C83FF1FF4
:10ADF0002DE9F047594F5A4E00233B603360594BC1
:10AE000090461A7882460C78002C4DD064B2944259
:10AE100041D10B4693F901405D1AEDB203F10109EE
:10AE20000CB14B46F6E7142068430430FFF790FF5F
:10AE300003463060E8434844A14642784AB351464D
:10AE400052B2D1F800E0BEF1000F20D09EF900C050
:10AE500094451AD14A68C3F800E05A600A891A81F9
:10AE60000AB10134E4B2B1F80AE08A89A3F80AE031
:10AE70009A81897BD973BEF1000F00D11AB109F113
:10AE800001095FFA89F9143301E01031D9E7013083
:10AE9000D3E71A600AE04B1C1946013391F9000010
:10AEA0000028F9D11946AEE7A14625463368002BA4
:10AEB00048D0B9F1000F2FD00C2000FB09F004306E
:10AEC00080B2FFF745FF264B38601B684FF0000E3D
:10AED0004FF0010C4FF6FF7A1A68AAB15A8932B1C5
:10AEE000524508BFA3F80AE05A89426002E09989F6
:10AEF00009B14160012142680AB180F809C009B175
:10AF000040F80C3B1433E7E70FFA89F94FEA0913CD
:10AF100000EB8900C01A386004EB0800C0B2FEF7ED
:10AF200051FA7CB13468FF2623685BB123893BB1B9
:10AF3000032001212246FEF711FBA07300B9A6737E
:10AF40001434F1E7084800F029FB084B00221A608E
:10AF500001F02EF92846BDE8F08700BF1883FF1FD7
:10AF60001083FF1FFF81FF1F1483FF1FD088FF1F67
:10AF7000064A108840F3000323F4974323F07F032D
:10AF800083EA500080B21080704700BF1483FF1F17
:10AF90001F4B73B51C680025143454F8143CA4F1FD
:10AFA00014069BB314F8053C13F00D0F2CD000F0E1
:10AFB00005FB34F8083C1BB914F8053CDB071DD42D
:10AFC00014F8043C9BB18DF800508DF8015054F8F2
:10AFD000142C12788DF803508DF802200020694659
:10AFE00005228DF80430FEF7D1FC04F8045C14F857
:10AFF000053C13F00A0308BF04F8053C00F0E6FA2C
:10B0000054F8103C304698471434C6E702B070BD7F
:10B010001083FF1F38B5154B1C68236823B393F9C1
:10B02000003083421ED1B1B9114B1D689DB12B6810
:10B030008BB19C420DD100F0C1FAA3891BB10D4A1E
:10B04000126813446B600023E373BDE8384000F0DE
:10B05000BDBA0C35EBE7480702D5E37B1A0703D4EA
:10B06000E17338BD1434D8E738BD00BF1083FF1F2B
:10B070001883FF1FD088FF1FF8B5184B1C680D46BA
:10B0800017464CB3164B1E6833682BB393F9003048
:10B0900083421FD12368E3B19E4218D100F08EFA9B
:10B0A000F37B23F00203F37327721FB9B58125B92F
:10B0B000657208E0002D08BF01250A4B1B681D447E
:10B0C000012365606372BDE8F84000F07FBA0C347C
:10B0D000E0E7F8BD1436D7E7F8BD00BF1883FF1FBF
:10B0E0001083FF1FD088FF1F154A164B11681B687D
:10B0F000013130B5104611600BB30C33042453F802
:10B100000C2CE2B113F8031CB9B1056853F8081C04
:10B110008D4212D1D17B8D0705D40D0758BFD47352
:10B1200013F8041C117492892AB153F8081C0A44BC
:10B1300043F8082C01E003F8032C0C33DFE730BDA3
:10B14000D088FF1F1883FF1F2DE9F043414C424D6B
:10B1500040F2B3720423571EBFB2BE070ED1A842FD
:10B1600010D9A0F1F170A0F505400233DBB2062B37
:10B1700002D8013292B2EEE7073BF7E7A0420AD8C5
:10B18000002400E001240022DFF8F0C0DFF8CC80CA
:10B19000DFF8EC900CE000F17E4000F5F61000F5D1
:10B1A00048600133DBB2062BE3D9073BFAE7022202
:10B1B0006CB1012A0BD1484519D9A0F51810A0F59A
:10B1C0006E501D33DBB2062BF1D9073BFAE71CF8B2
:10B1D000025008FB05F6B04209D9801B2B44DBB2B4
:10B1E000062B01D9073BFAE70132D2B2E0E71B4C4C
:10B1F0000126A0420BD9A0F5A8300136A0F5C070F9
:10B20000F6B20133DBB2062BF3D9073BFAE7002491
:10B21000B0F5616F04D90134A0F56160E4B2F7E7DD
:10B2200000253C2803D901353C38EDB2F9E771B16E
:10B230000B4901320A700B4A16700B4A13700B4B04
:10B2400018700B4B1D700B4B1C700B4B1F80BDE817
:10B25000F08300BF8033E1010085E20180510100ED
:10B260000582FF1FFE81FF1F0082FF1FF483FF1F67
:10B270005C86FF1F7083FF1F0282FF1FACEB030081
:10B28000803B26002DE9F047B0F80480042340F20B
:10B29000B2740022444504F0030617D201344EB9BB
:10B2A00002F1F17202F505420233DBB2062BF1D94D
:10B2B000073BFAE702F1F07202F5993202F5C0722B
:10B2C0000133DBB2062BE5D9073BFAE78579DFF8D6
:10B2D000B8C0DFF8B8906C1E54B1013C14F80C7083
:10B2E00009FB07223B44DBB2062BF5D9073BFAE703
:10B2F0005EB9022D09D902F5A83202F5C0720133F8
:10B30000DBB2062B01D9073BFAE790F807C00CF136
:10B31000FF394B44DBB2062B01D9073BFAE7867AAB
:10B32000477AC47A30B24FEA800A8001CAEB000043
:10B330004FF4616A0AFB0700DFF850A020440AFBC3
:10B34000090909EB020079B1084AA2F80080084A0D
:10B350001570084A82F800C0074A1770074A16702D
:10B36000074A1470074A1370BDE8F0870282FF1F76
:10B370000582FF1FFE81FF1F7083FF1F5C86FF1F7A
:10B38000F483FF1F0082FF1FACEB0300805101001C
:10B3900070477047704770477047704770477047F5
:10B3A0007047000038B5104D104A2B781278DBB288
:10B3B0001A4091060CD50E4C0E4B20785B79052176
:10B3C0001840FEF771FC2B78DBB21A0748BF2278D1
:10B3D000064A127822F07F02134204D00520BDE80D
:10B3E0003840FEF771BE38BD04B00E4003B00E40C9
:10B3F00007B00E406483FF1F38B5104D104A2B78FC
:10B400001278DBB21A4094060CD50E4C0E4B207805
:10B410001B7904211840FEF747FC2B78DBB2180794
:10B4200048BF2278064A127822F07F02134204D0E5
:10B430000420BDE83840FEF747BE38BD04A00E40EA
:10B4400003A00E4007A00E406483FF1F38B5104DC7
:10B45000104A2B781278DBB21A4092060CD50E4CAB
:10B460000E4B2078DB7803211840FEF71DFC2B786B
:10B47000DBB21D0748BF2278064A127822F07F020D
:10B48000134204D00320BDE83840FEF71DBE38BD8E
:10B4900004D0064003D0064007D006406483FF1F57
:10B4A00038B5104D104A2B781278DBB21A4090064E
:10B4B0000CD50E4C0E4B20789B7802211840FEF7DD
:10B4C000F3FB2B78DBB2190748BF2278064A1278C3
:10B4D00022F07F02134204D00220BDE83840FEF77C
:10B4E000F3BD38BD04C0064003C0064007C0064097
:10B4F0006483FF1F38B5104D104A2B781278DBB2E9
:10B500001A4092060CD50E4C0E4B20785B78012128
:10B510001840FEF7C9FB2B78DBB21D0748BF227825
:10B52000064A127822F07F02134204D00120BDE8BF
:10B530003840FEF7C9BD38BD04B0064003B0064030
:10B5400007B006406483FF1F38B5104D104A2B78B2
:10B550001278DBB21A4090060CD50E4C0E4B2078B8
:10B560001B7800211840FEF79FFB2B78DBB21907F0
:10B5700048BF2278064A127822F07F02134204D094
:10B580000020BDE83840FEF79FBD38BD04A006404E
:10B5900003A0064007A006406483FF1F064B10B5BA
:10B5A0001C68238841F27B22002B08BF13460380CE
:10B5B000FFF7DEFC208010BDD488FF1F72B6024B5F
:10B5C0001A6801321A6070475883FF1F034A1368D4
:10B5D000013B136003B962B6704700BF5883FF1F79
:10B5E00008B5094B1B88DB070CD5FFF7E7FF074BB6
:10B5F0004AF202621A804BF280421A80BDE808408B
:10B60000FFF7E4BF08BD00BF002005400C20054047
:10B6100008B5064B4FF000721A60FFF7CFFFFFF737
:10B6200063FDBDE80840FFF7D1BF00BF04ED00E0B7
:10B63000F8B52D4E33680446154653B92B4F2C4AA6
:10B6400027F00107D85B985202333C2BFAD1294BE3
:10B65000336029480278284B1206FBD51A7812F07D
:10B66000300F1CBF30221A70244B092C1C700BD0D9
:10B6700002D8062C08D01AE0412C11D0432C16D148
:10B680000A681F4B1A700FE01D4B0A0C1A70062C2B
:10B690004FEA112203F8012C03F8021C07D103E042
:10B6A0000A68174B1A7002E02B68164A1360FFF7FE
:10B6B00085FF336810489847FFF788FF412C0ED16B
:10B6C000114B1A78013B1B781B0443EA02630D4AB5
:10B6D000127813430D4A127843EA02232B60064B7B
:10B6E000187800F03100F8BD4883FF1FF281FF1F7A
:10B6F000F884FF1FF984FF1F00000240070002408A
:10B7000006000240080002400B000240090002400F
:10B71000F8B5444B1C689C60434B1A780132D2B296
:10B720003B2A1A7063D900221A70404B19780131F4
:10B73000C9B23B29197038D91A703D4B19780131BB
:10B74000C9B21729197024D91A703A4A3A4811789F
:10B7500003780131C9B211700133DBB2062B01D974
:10B76000073BFAE71D29037007D1344B19780229EA
:10B7700003D10121117003221A70314B1B681B0782
:10B7800007D5304BDD6825B1FFF718FFA847FFF755
:10B790001DFF2B4B1B689F0607D52A4B5D6925B102
:10B7A000FFF70CFFA847FFF711FF254B254D1A683F
:10B7B00012F0020F1F4606D06E6826B1FFF7FEFE9C
:10B7C000B047FFF703FF204A13781E060FD4013B52
:10B7D000DBB213703A68D00709D55BB2013306D1EA
:10B7E0002D6825B1FFF7EAFEA847FFF7EFFE154BDE
:10B7F0001D691E4625B1FFF7E1FEA847FFF7E6FEEB
:10B800000F4B1B6859070CD5104B1B689C4208D185
:10B81000B46834B1FFF7D2FEA047BDE8F840FFF7A7
:10B82000D5BEF8BD00D00340F483FF1F5C86FF1F28
:10B830007083FF1FFE81FF1F0082FF1F0582FF1F15
:10B840005886FF1F7486FF1F0482FF1F6083FF1F3F
:10B8500008B5084B00221A60074B1A6822F0010253
:10B860001A60FFF7ABFE054B1B689847BDE8084020
:10B87000FFF7ACBE00000440388004403483FF1F53
:10B8800008B5064B1A681A60FFF798FE044B1B6850
:10B890009847BDE80840FFF799BE00BF000004408C
:10B8A0003483FF1F094B1A6822F4803222F04102D0
:10B8B00010B51A60064B1C6834B1FFF77FFEA04735
:10B8C000BDE81040FFF782BE10BD00BF006003401E
:10B8D0006086FF1F0C4B1F2213B51A600B4B5C6870
:10B8E0007CB10B4B1B68ADF8043000238DF806309B
:10B8F00001238DF80730FFF761FE01A8A047FFF78D
:10B9000065FE02B010BD00BF00B00B406486FF1F93
:10B9100010B00B400C4B1F2213B51A600B4B1C6868
:10B920007CB10B4B1B68ADF8043000238DF806305A
:10B9300001238DF80730FFF741FE01A8A047FFF76C
:10B9400045FE02B010BD00BF00B003406486FF1F7B
:10B9500010B0034010B5094B5B7801229A40084BA8
:10B960001A60084B5C683CB1FFF728FE0020A04736
:10B97000BDE81040FFF72ABE10BD00BF5086FF1F74
:10B98000248000406C86FF1F10B5094B1B780122F4
:10B990009A40084B1A60084B1C683CB1FFF70EFE3A
:10B9A0000020A047BDE81040FFF710BE10BD00BF4B
:10B9B0005086FF1F248000406C86FF1F10B5084B87
:10B9C0001B7801229A40074B1A60074B1C6834B160
:10B9D000FFF7F4FDA047BDE81040FFF7F7BD10BD2D
:10B9E0002C83FF1F248000404C83FF1F036810B589
:10B9F0001C061CD5144B33F81130DA0404D5C3F3FC
:10BA00000B039BB2036012E080230129036004D082
:10BA1000022907D059B90D4B05E00C4B1A6822F0EA
:10BA2000007203E00A4B1A6822F080721A60094B18
:10BA300053F8214034B1FFF7C1FDA047BDE81040E5
:10BA4000FFF7C4BD10BD00BF5083FF1F3C80044002
:10BA5000308004403883FF1F01480221FFF7C6BF32
:10BA600000800B4001480121FFF7C0BF0090034058
:10BA700001480021FFF7BABF008003402DE9F843D9
:10BA8000134FDFF854803C68FCB1124E3C60012536
:10BA9000254215D0D6F80090FFF790FD08EB06037D
:10BAA00003F14043A3F59A2309F430291B68984712
:10BAB000B9F5002F08BF3D6024EA0504FFF786FDB5
:10BAC0006D000436002CE3D1DDE7BDE8F88300BF4C
:10BAD000A0D0044000D004407884FF1F2DE9F84333
:10BAE000134FDFF854803C68FCB1124E3C600125D6
:10BAF000254215D0D6F80090FFF760FD08EB06034D
:10BB000003F14043A3F5982309F430291B689847B3
:10BB1000B9F5002F08BF3D6024EA0504FFF756FD84
:10BB20006D000436002CE3D1DDE7BDE8F88300BFEB
:10BB3000A0C0044000C00440F883FF1F2DE9F84373
:10BB4000134FDFF854803C68FCB1124E3C60012575
:10BB5000254215D0D6F80090FFF730FD08EB06031C
:10BB600003F14043A3F5962309F430291B68984755
:10BB7000B9F5002F08BF3D6024EA0504FFF726FD54
:10BB80006D000436002CE3D1DDE7BDE8F88300BF8B
:10BB9000A0B0044000B00440D085FF1F2DE9F84359
:10BBA000134FDFF854803C68FCB1124E3C60012515
:10BBB000254215D0D6F80090FFF700FD08EB0603EC
:10BBC00003F14043A3F5942309F430291B689847F7
:10BBD000B9F5002F08BF3D6024EA0504FFF7F6FC25
:10BBE0006D000436002CE3D1DDE7BDE8F88300BF2B
:10BBF000A0A0044000A004407483FF1F2DE9F84377
:10BC0000134FDFF854803C68FCB1124E3C600125B4
:10BC1000254215D0D6F80090FFF7D0FC08EB0603BC
:10BC200003F14043A3F5922309F430291B68984798
:10BC3000B9F5002F08BF3D6024EA0504FFF7C6FCF4
:10BC40006D000436002CE3D1DDE7BDE8F88300BFCA
:10BC5000A0900440009004403C85FF1F0E4B020161
:10BC60001344002210B59A600446FFF7A7FC0B4B63
:10BC700064001A780320A04022EA0000187038B946
:10BC8000074B08491A68022022F4000208601A6073
:10BC9000BDE81040FFF79ABC007103405C83FF1FB2
:10BCA0003C8004400070034008B50A4B01221A6032
:10BCB000094B93F90030002B02DB0320FFF7CEFF86
:10BCC000FFF77CFC054BDB689847BDE80840FFF7B1
:10BCD0007DBC00BF3C7103405C83FF1F1C83FF1FC2
:10BCE00008B5094B01221A60084B1B789B0602D449
:10BCF0000220FFF7B3FFFFF761FC054B9B689847F5
:10BD0000BDE80840FFF762BC2C7103405C83FF1F55
:10BD10001C83FF1F08B5094B01201860084B1B78D6
:10BD20001A0701D4FFF79AFFFFF748FC054B5B6841
:10BD30009847BDE80840FFF749BC00BF1C710340AD
:10BD40005C83FF1F1C83FF1F08B50A4B01221A608A
:10BD5000094B1B7803F0020303F0FF000BB9FFF758
:10BD60007DFFFFF72BFC054B1B689847BDE808409B
:10BD7000FFF72CBC0C7103405C83FF1F1C83FF1F6B
:10BD80002DE9F84F064690461D460F46FFF716FC74
:10BD9000364B374C1A684FF00C0909FB06F94A4438
:10BDA000A260926812F0400F9B4605D105F1100386
:10BDB000636005F1140304E005F11803636005F105
:10BDC0001C03DFF8ACA0E3603846D8F80410324614
:10BDD0005346FEF793FC0328074606D004281BD0E1
:10BDE00001282CD1FFF7F2FB3CE0DAF80810DAF872
:10BDF00004204B6843F0800313604B6883F04003DA
:10BE00004B608B6883F040038B60D8F8003043F0C0
:10BE10008003C8F8003022E026B984232B61AB618F
:10BE2000304609E03046FEF721FF124B1B6803EB5A
:10BE3000401384221A619A610821FEF709FFDBF89A
:10BE4000002002EB090399680B4B0B4021680B4360
:10BE500043F080012360C8F8001042F80930FFF772
:10BE6000B5FB00273846BDE8F88F00BF3083FF1FC1
:10BE7000BC85FF1F4483FF1F0800FF032DE9F04727
:10BE8000AA4E3746AA4DDFF8CC822C7898F80030BD
:10BE90001C4000F0488134F0080900F08780FFF76B
:10BEA0008DFBE2074AD5A34AA34833232B701378AE
:10BEB00043F00203137098F8003023F0300388F841
:10BEC00000309E4B19688B6823F040038B60002381
:10BED0000B601178137101F0FD0111709849012276
:10BEE0000A70984A1370137113710370037103720F
:10BEF00003730374037503760377137182F830308C
:10BF000082F8343082F838300B7803F0040303F001
:10BF1000FF08002BF8D18C4B8C4A1B68DFF83CA241
:10BF20009A6040321A600420424653464146FEF76A
:10BF3000E5FB834B8AF812800D221A70A30711D5F6
:10BF40003378580703D5824B5A6801325A603B78E0
:10BF5000990703D57E4B1A6801321A6006233370A5
:10BF600002232B70E2060CD530232B70794B1A7804
:10BF7000002142F020021A7005200A460B46FEF707
:10BF8000BDFBA3060CD530232B70724B1A78002111
:10BF900022F020021A7006200A460B46FEF7AEFB7E
:10BFA0005FFA89F9FFF712FB85F8009024077FF507
:10BFB0006AAF694A644B1578147818682D0929B25C
:10BFC00014F0080F00EB4113644C20D08A000901E3
:10BFD000891A5A4A12681144A1608A68500604D42A
:10BFE00003F110026260143303E003F1180262608F
:10BFF0001C33E360FFF7E2FA2A46584B0021032086
:10C00000FEF77CFBFFF7E2FAA27C554B7EE012784C
:10C0100002F0040202F0FF0E22B103F108024FF019
:10C02000400E00E01A46C4F800E0D2F800E0CEF37B
:10C03000094CA4F810C00EF03C04042C02D0342C9F
:10C040002BD065E0DFF8F48008018C00041BD8F8E1
:10C05000000000EB040E8900DEF808E01EF0080F77
:10C060001CBF005900F080093548415C08BF4FF003
:10C070008009C90628464CBF01210221FFF780FE36
:10C08000D8F800301A59B9F1000F02D022F080021E
:10C0900001E042F080021A5141E000241C619C61E1
:10C0A0002E4CDFF898E024684FEA810C4FEA011823
:10C0B00014F0400FDEF80040CCEB080C6444D4F8D8
:10C0C00008C0284C0CEA040404D1046044F0C00405
:10C0D000846003E0846044F0C004046088000901C7
:10C0E0000C1ADEF800102144482048602846002140
:10C0F000FFF746FE012805D0104B1B681A5942F085
:10C1000080021A510B4B1A7802F0DF021A7006E017
:10C1100084221A619A6128460821FEF799FD044B92
:10C1200008221A70AEE6BDE8F08700BF88200740FD
:10C130008020074094200740D02007403083FF1F15
:10C14000C0200740C42007404483FF1F8800080028
:10C150003485FF1F8420074090200740BC85FF1FC7
:10C16000982007400800FF030F4B43F8202000F100
:10C17000604303F564430901C9B2197020220B4BD7
:10C1800090FBF2F29200034002F16042002B02F5B4
:10C19000614203DA013B63F01F030133012101FA1D
:10C1A00003F31360704700BF4080FF1F1F00008033
:10C1B000074A084B1A60084A084BDA63084B1A68AA
:10C1C00042F070621A60A3F5516307221A6070474B
:10C1D0007FEE360014E000E011B603000080FF1F80
:10C1E00020ED00E0134B20F0800210B51C685101D7
:10C1F000000604EB010313D50F48104900680C2416
:10C2000004FB0200446824F04004446000201861EC
:10C21000986111F8223023F0020301F8223010BD9A
:10C22000625822F0040262509A6822F004029A6076
:10C2300010BD00BF4483FF1F3083FF1FC020074095
:10C2400038B5174B1D68174B13F820305A070C46AA
:10C2500024D5154B1B680C2202FB00338B6005EBC9
:10C260004015FFF7ABF9A3689B685B0604D405F1A2
:10C2700010036360143503E005F1180363601C3597
:10C280006368E560186810F0800403D0FFF79EF93A
:10C29000022038BDFFF79AF9204638BD012038BD8D
:10C2A0004483FF1FC02007403083FF1F2DE9F04F5C
:10C2B0009C46404BDFF80C81D3F800900C468B0075
:10C2C0002701FF1A3C4B1646D3F800A04A0118F884
:10C2D000211009EB020521F00C010AEB070B08F80D
:10C2E0002410FF284FF00001A9612961A96085B0E1
:10C2F00049F80210CBF808109B464AF807102F4B5C
:10C3000006D11A7822F030021A7008F824104EE094
:10C3100093F800A04AF0100A83F800A0DBF8003080
:10C3200020F0800ABAF1010F3B4402D15960242366
:10C3300003E00821596005234821000631D46868CC
:10C3400080B9664538BF6646304603910192029334
:10C35000FEF7FEFC68603046FEF7FAFC029B019A8D
:10C360000399E860164836043040014341F08000EC
:10C3700021F04001A86041F0800049F80200DBF89C
:10C380000020174443F0080CB960BAF1000F01D146
:10C39000634603E003F0FB0343F0180308F824307E
:10C3A00005E0BAF1000FF9D043F01003F6E705B04D
:10C3B000BDE8F08F4483FF1F3083FF1F84200740B8
:10C3C0000000FF03C02007401C4B2DE9F0411D6811
:10C3D00003B205EB43159A001C01194BA41A1A6805
:10C3E000125912F0400F0CBF083500262A6808BF0A
:10C3F000402612F08007984619D16968C2F30942B5
:10C400000123FEF705F9012814D0D8F800301A19D5
:10C41000384691680B4A0A4032431E5906F080069E
:10C4200042F08001324329601A51BDE8F0810120B9
:10C43000BDE8F0810220BDE8F08100BF4483FF1F0A
:10C440003083FF1F0800FF032DE9F0414E4B4E7C67
:10C450001A6842F040021A6003F5203301361A6868
:10C4600022F0804242F000421A600B7C012B0C4605
:10C47000F6B209D1454B1A6842F4A0221A605A6CF0
:10C4800042F005025A6408E0414B1A6842F4005237
:10C490001A60404B4FF4E0621A603F4B3F4F1A68FE
:10C4A000102E28BF102642F480220C201A60704300
:10C4B000FEF74EFC3A4B38601A7842F080021A7050
:10C4C0001A781206FCD4374D02232B704FF40071FA
:10C4D0007001FEF765FC344B344A1860000A107096
:10C4E00059881175D9781176314900220A7028319E
:10C4F0002A700A701D460B7803F0040303F0FF084E
:10C50000002BF8D108202E68FEF722FC706008206E
:10C510002E68FEF71DFC2B68264AF0609A604032B8
:10C520001A603B684FF008129A60234B0D221A7074
:10C53000ED2203F8B02CFF2203F8402CBF2203F8B1
:10C54000382C1E4A1E4B1A601E4B60226FF4507529
:10C550001A702B444FF400721A601B4B8B2203F8A5
:10C560007C2C062203F8742C012283F8008003F847
:10C570006C2C6389DE0705D5094B40221A70102206
:10C5800003F8042CBDE8F08100F001400480044071
:10C590003880044068D00440348004403083FF1F5A
:10C5A0000C210740942007404483FF1F9C20074034
:10C5B0009820074088000800C02007407DBE030087
:10C5C0006481FF1F49E400E0002107403D4B53F820
:10C5D0002030052871D8DFE800F0031527394B5DBE
:10C5E000394A116841F480611160384A4FF4407152
:10C5F00011603749374A1160374AC02111704FF432
:10C60000005158E0304A116841F400511160334A3A
:10C610004FF4407111603249324A1160324AB02100
:10C6200011704FF4004146E0274A116841F48051EF
:10C6300011602E4A4FF4407111602D492D4A11604E
:10C640002D4AA02111704FF4003134E01E4A1168C8
:10C6500041F400511160294A4FF44071116028499A
:10C66000284A1160284A902111704FF4002122E0DD
:10C67000154A116841F400511160244A4FF4407189
:10C6800011602349234A1160234A802111704FF41D
:10C69000001110E00C4A116841F4005111601F4A6A
:10C6A0004FF4407111601E491E4A11601E4A7021EC
:10C6B00011704FF400011D4A1160DA7842F008024F
:10C6C000DA707047B8EB03003880044044A004409F
:10C6D00049B50300F480FF1F2DE400E000D00440C2
:10C6E000F5B40300FC80FF1F2FE400E00CC0044001
:10C6F000A1B403000481FF1F31E400E010D0044026
:10C700004DB403000C81FF1F33E400E060D004400F
:10C71000F9B303001481FF1F35E400E020D004408A
:10C72000A5B303001C81FF1F37E400E004E100E033
:10C73000034B53F82030DA7802F07702DA70704752
:10C74000B8EB03003D4B53F82030052871D8DFE8E3
:10C7500000F0031527394B5D394A116841F48061B7
:10C760001160384A4FF4407111603749374A1160FF
:10C77000374AC02111704FF4005158E0304A116817
:10C7800041F400511160334A4FF440711160324955
:10C79000324A1160324AB02111704FF4004146E034
:10C7A000274A116841F4805111602E4A4FF44071BC
:10C7B00011602D492D4A11602D4AA02111704FF4AE
:10C7C000003134E01E4A116841F400511160294AD9
:10C7D0004FF4407111602849284A1160284A90217D
:10C7E00011704FF4002122E0154A116841F4005104
:10C7F0001160244A4FF4407111602349234A1160AB
:10C80000234A802111704FF4001110E00C4A116886
:10C8100041F4005111601F4A4FF4407111601E49EC
:10C820001E4A11601E4A702111704FF400011D4A0A
:10C830001160DA7842F02402DA707047B8EB030036
:10C840003880044040A0044049B50300F480FF1F35
:10C850002DE400E004D00440F5B40300FC80FF1F89
:10C860002FE400E008C00440A1B403000481FF1FCE
:10C8700031E400E014D004404DB403000C81FF1FEC
:10C8800033E400E064D00440F9B303001481FF1FD7
:10C8900035E400E024D00440A5B303001C81FF1F51
:10C8A00037E400E004E100E0034B53F82030DA788D
:10C8B00022F02402DA707047B8EB0300034B53F800
:10C8C0002030DA7802F07F02DA707047B8EB0300AC
:10C8D000074B53F820301A79100606D5DA78D9714B
:10C8E00062F07F02DA70002070470120704700BFBD
:10C8F000B8EB0300514B53F8203030B5002B00F05B
:10C900009C805A7B11F4C05F02F0F90200F087802E
:10C910000D0545D505283AD8DFE800F0030C151EB3
:10C920002730474C256845F4806525604FF44075F5
:10C93000444C2BE0424C256845F4005525604FF4EB
:10C940004075414C22E03E4C256845F480552560F9
:10C950004FF440753D4C19E0394C256845F40055BD
:10C9600025604FF440753A4C10E0354C256845F48D
:10C97000005525604FF44075364C07E0304C256873
:10C9800045F400552560344C4FF4407525608C0407
:10C9900005D54D044CBF42F0020242F006025A7324
:10C9A000CC043CD505283AD8DFE800F0030C151E6E
:10C9B00027302348046844F4806404604FF44074D2
:10C9C00026482BE01E48046844F4005404604FF4E9
:10C9D0004074234822E01A48046844F480540460F8
:10C9E0004FF440741F4819E01548046844F400549B
:10C9F00004604FF440741C4810E01148046844F48B
:10CA0000005404604FF44074184807E00C48046870
:10CA100044F40054046016484FF4407404609207D4
:10CA20000BD4CD0703D55A7B42F008025A738C070A
:10CA300003D55A7B22F008025A7330BDB8EB0300CD
:10CA40003880044008A004400CD0044000C00440DA
:10CA50001CD004406CD004402CD004400CA00440F6
:10CA600008D0044004C0044018D0044068D00440FA
:10CA700028D00440314B70B505460E4653F820408F
:10CA8000052859D8DFE800F00305070C11162C4BD8
:10CA90000CE02B4B0FE02A4B1A6842F480520DE059
:10CAA000274B1A6842F4005208E0264B1A6842F4F9
:10CAB000806203E0234B1A6842F400621A60336814
:10CAC0005A0605D528464FF4C0510022FFF712FF41
:10CAD000012DF37A06D80B2B0CD81B4A1B4932F8D0
:10CAE000132005E00B2B08D8194A1A4932F81320F5
:10CAF000CB5C04E00C23EA2201E006237522A3723A
:10CB0000C2F30423D2B2237062703268124912F069
:10CB1000010F02F0060307D07F2048555BB1530791
:10CB20004CBF0323022306E0FF2048551BB15607E4
:10CB30004CBF13231223A37070BD00BFB8EB0300DA
:10CB4000348004402880044044EC03005CEC030083
:10CB50009CEC030028EC03006483FF1F084B53F890
:10CB60002030480703D55A7B42F001025A73090767
:10CB700003D55A7B22F001025A734FF4807070473C
:10CB8000B8EB030038B520F4FF64451824F007041F
:10CB9000092021460022FEF74BFD30B92B1BB3F5CF
:10CBA000006F03D904F50064F2E7012038BD4FF4AB
:10CBB0000061FFF7E7BF00002DE9F74F16460F466B
:10CBC000244C51B923689D0701D100203EE023F099
:10CBD000030323604FF0040804E020F00303236004
:10CBE00000F00308DFF87090DFF868A009F1040B8B
:10CBF000C8F10405B54228BF354609EB08031846BD
:10CC000039462A460193FCF78EFD019B2B445B4578
:10CC10002F44C5EB060612D3062021680E4AFEF704
:10CC200007FD054688B9DAF800300B480433FF21C8
:10CC30000422CAF80030A846FCF76DFD02E0236824
:10CC40001D442560002ED3D1BFE7012003B0BDE80D
:10CC5000F08F00BF5486FF1F6C83FF1F13B508229F
:10CC600004464FF408316846FCF75DFD009B002C3C
:10CC70000CBF4FF0FF344FF05534B3F1553F02D1A4
:10CC8000019BA3420FD068464FF40A310822FCF7FB
:10CC90004AFD009BB3F1553F07D10198A0420CBF5C
:10CCA0000220002002E0012000E0002002B010BDC0
:10CCB00002280CBF4FF40A304FF4083070B513440B
:10CCC00000F1080404EB81049DB293B29D4208D0A8
:10CCD000561C104621460122FCF725FD043432463D
:10CCE000F3E7002070BD2DE9F3411646020648BF68
:10CCF00000F07F0098464CBF0125002543060F46F3
:10CD00000AD54FF40830FFF752FF4FF40A30FFF70F
:10CD10004EFF4FF4083405E002280CBF4FF40A34EC
:10CD20004FF40834B8F1000F07D004F10803B04401
:10CD300003EB87071FFA88F810E055B1B4F5083FF8
:10CD400014BF4FF408304FF40A30FFF730FF454668
:10CD500013E02046FFF72BFF7FB132E0B3B29845D6
:10CD60000BD016F8013B384663F0FF0301A90422FB
:10CD700001930437FFF720FFF0E701A821460422C2
:10CD8000FCF7D1FC019BB3F1553F07D04FF0553371
:10CD9000204601A904220193FFF70EFF8DB9043448
:10CDA00001A821460422FCF7BEFC019BB3F1553FCC
:10CDB00007D04FF05533204601A904220193FFF715
:10CDC000FBFE002002B0BDE8F08100002DE9F0413B
:10CDD000037B23F0E003013B0446092B00F296801D
:10CDE000DFE803F007054F484B97A3253E43002596
:10CDF00041E0524B524D1A6842F000521A60514BBA
:10CE000000221A60037B13F0200F06D00069012175
:10CE1000FEF79AF923692B6003E00121FEF732FA4D
:10CE200028602A68484B1A601022DA606EE0474B8F
:10CE30001B78C372464B1B888380464B1B788371DB
:10CE4000454B1B78C371454B1B780372444B1B78D1
:10CE50004372444B1B788372394B1B68036155E066
:10CE60000021FEF70FFA206150E000690021FEF773
:10CE70006BF94BE00125013500E000250135013556
:10CE800000E00025013594F90C30002B08DA364B10
:10CE9000012202FA05F51A6822EA05021A6035E055
:10CEA000264B284E1A68264F42F000521A6030680E
:10CEB00010F0010809D0002333603B602B4B4FF486
:10CEC00040721A600120BDE8F0812268284B43F8C7
:10CED0002520C6F8008038680121FEF735F9224B7D
:10CEE000012202FA05F51A682A431A603A68164BBD
:10CEF0001A60204A204B1A60204B20221A70204AC8
:10CF0000042313601F4A1360102333600020BDE820
:10CF1000F081154B1A68002122F004021A60FEF716
:10CF2000B1F9194B00251860A9E7827A174B013A2D
:10CF300002F03F021A700025A5E700BF3C800440C4
:10CF400000D0034014D0034008D00340F483FF1FF7
:10CF50000282FF1F0582FF1FFE81FF1F0082FF1F4D
:10CF60007083FF1F5C86FF1F5886FF1F10D0034091
:10CF70007486FF1F11B703004881FF1F42E400E0E1
:10CF800008E100E01CD003406083FF1F0482FF1F04
:10CF9000014A024B1A60FEE70400FA050CED00E0BE
:10CFA00010B5124A12491348891A00238B4203D044
:10CFB0001C5CD4540133F9E70F4B104A93421846D6
:10CFC00005D10F4A0F490023891A184608E00E4977
:10CFD0000023891A8B42F4D0C45CD4540133F9E79E
:10CFE0008B4202D0D0540133FAE710BDF081FF1F0D
:10CFF0001982FF1F50F3030090800300908003000C
:10D000001C82FF1F0989FF1FACE8030000F5802088
:10D0100049300003012342F4807231B10B421CBF3E
:10D020000260994304305B00F7E7704708B5414B55
:10D030001A6842F400721A60002003224FF4005173
:10D04000FFF7E4FF3C4B1A6822F400521A603B4B96
:10D050004CF220521A804DF628121A804FF4C872F2
:10D0600023F8082C002223F80A2C40F2C11223F8DE
:10D070000E2C334B24221A70A02203F8012C314AC3
:10D08000137813F0020F2F4BFAD01A78D006FCD485
:10D090001A7802F00C02082AFAD12B4B29490722F0
:10D0A0001A704C225A700B78264A13F0200FFAD0CF
:10D0B00013785906FCD5254A254B1A60254B2822A2
:10D0C0001A70204A137803F00C030C2BFAD1224B70
:10D0D000224A23491360234ADA60234A1A61234A09
:10D0E0005A61234A9A61234A1A63234A9A60234A5F
:10D0F0009A63234ADA62234A3C3343F8041F93427B
:10D10000FBD1FFF74DFFFF2104221F48FCF703FB73
:10D1100001F052F81D4A1E4B1E481F491A60FDF7C8
:10D12000F1FD1E481E490C22FDF762FEFDF730FF9F
:10D13000FCE700BF3880044014F00F400E2005408B
:10D14000014006400640064004400640000013012E
:10D1500044800440004006400080FF1F08ED00E0CE
:10D16000A1B3030091B3030093B3030095B303008D
:10D1700097B3030099B303009BB303009DB303006F
:10D180009FB30300AC81FF1F6C83FF1FFC7F002057
:10D19000D488FF1F34EC03000C89FF1FD8EB030079
:10D1A00096EB03002DE9F84F03790446072B00F2B4
:10D1B0008385DFE813F008009302DA005D01AB031A
:10D1C0002F03D0043C058279550614D4100615D4DB
:10D1D00012F0080F02F0100306D0002B0CBF4FF422
:10D1E000102A4FF4302A0BE0002B14BF4FF4202AF2
:10D1F0004FF0000A04E04FF4002A01E04FF4402A07
:10D20000910702D54AF0030A03E0530748BF4AF0EA
:10D21000020AA76894F80780DFF85093DFF850B34C
:10D2200000260125002F00F09E803D4200F09880EE
:10D23000B8F1040F00F24085DFE808F0031E3A570A
:10D24000720022689D499E4872509E4A6179106022
:10D2500009019D4AC9B211709C4A4FF40001116046
:10D260009B4A116841F40071116000205246294622
:10D27000FFF7CCFE974A6DE02268974997487250B5
:10D28000974A617910600901964AC9B21170A2F5F6
:10D2900054724FF0807111608D4A116841F48061C1
:10D2A0001160012052462946FFF7B0FE8E4A51E038
:10D2B00022688E498E4872508E4A61791060090149
:10D2C0008D4AC9B26FF4547E117072444FF00071F0
:10D2D00011607F4A116841F40061116002205246DA
:10D2E0002946FFF793FE854A34E022688449854841
:10D2F0007250854A617910600901844AC9B211707F
:10D30000724A4FF080611160714A116841F4805196
:10D310001160032052462946FFF778FE7C4A19E047
:10D3200022687C4B46F8092061797B4AC3F800B03B
:10D330000901C9B21170654A4FF000611160644A79
:10D34000116841F400511160042052462946FFF74C
:10D350005DFE724A116821EA0501116027EA05079E
:10D360006D0004365EE7BDE8F88F007B032800F20D
:10D37000A384B4F90E30002B03DABDE8F84FFEF7B2
:10D380006DBC2368664A42F82030FEF717F9654BFA
:10D39000227B187852000321914020EA0101E089A4
:10D3A00000F0030000FA02F20A431A70FEF70EF9C9
:10D3B0005D4B207B19685D4A41F4000119605C4BAC
:10D3C00000211960236800010244002B30D0237B28
:10D3D000032B2FD8DFE803F0020C16206179554BA0
:10D3E000554D09011D60554BC9B2197010211CE043
:10D3F0006179534B534D09011D60534BC9B21970EC
:10D40000202112E06179514B514D09011D60514BB2
:10D41000C9B21970402108E061794F4B4F4D0901A5
:10D420001D604F4BC9B219708021284B196001E073
:10D43000012300E00323E1893C4E11F0050F1CBFDE
:10D4400000259560A56885510120D060080704D5A6
:10D45000207B043040F0800005E0C90605D5207B24
:10D46000043040F090003F4908609360BDE8F88FB9
:10D4700042799309012B00F0B68004D3022B00F00F
:10D48000D380BDE8F88F284B196841F0807119608E
:10D49000437923F0C003072B00F20E84DFE803F08A
:10D4A000046A73987D868F98094B196841F400715E
:10D4B00019604FF450712C4B6DE000BF3C85FF1F8D
:10D4C000FDBB03009C81FF1F57E400E008E100E082
:10D4D0003880044014F00F407483FF1F9DBB03008D
:10D4E000A081FF1F58E400E054F00F40D085FF1FDB
:10D4F0003DBB0300A481FF1F59E400E094F00F40FE
:10D50000F883FF1FDDBA0300A881FF1F5AE400E083
:10D51000D4F00F40AC81FF1F5BE400E014F10F403A
:10D520001C83FF1F5C83FF1F3C800440007103408D
:10D53000007003405081FF1F49BD030044E400E038
:10D540005481FF1F15BD030045E400E05881FF1F13
:10D55000E1BC030046E400E05C81FF1FA9BC0300BE
:10D5600047E400E0188004400C9004407884FF1FDA
:10D570007DBA0300944B196841F4007119604FF4AF
:10D580005071924B07E0904B196841F400611960AB
:10D590008F4B4FF48861196023E08B4B196841F47D
:10D5A000007119604FF450718A4BF4E7864B19688B
:10D5B00041F4007119604FF45071874BEBE7824BD7
:10D5C000196841F4007119604FF45071834BE2E720
:10D5D0007D4B196841F4007119604FF45071C3F824
:10D5E000E01F7F4B41E07F4B196841F000711960EB
:10D5F000437933F0C00303D0012B0AD0BDE8F88F84
:10D60000714B196841F4007119604FF45071764BF9
:10D6100007E06D4B196841F400711960734B4FF4CA
:10D6200050711960724B20E0724B196841F08071A3
:10D630001960437933F0C00303D0012B0BD0BDE850
:10D64000F88F614B196841F4007119604FF4507103
:10D65000C3F8F01F08E05C4B196841F400711960D1
:10D66000654B4FF450711960644BC021C3F88410AE
:10D67000A17A01F01801182902F03F020FD1604988
:10D680004FF080750868954020EA05000860C86A78
:10D6900040F40070C8625B4940F20340086094F9AE
:10D6A0000A100132002903EBC201B4BF2420282054
:10D6B00048600021D964A17A208911F0200FE18807
:10D6C00003D040089860490801E00138986003EBF6
:10D6D000C2029160A27A02F03F02ECE2857B83688D
:10D6E000012D10D003D3022D1DD0BDE8F88FB0F965
:10D6F0000C20002A3B4A1BDB1168394E41F0807137
:10D7000011603E201EE0B0F90C20002A354A03DAF1
:10D71000136823F0007387E21168354E41F0007101
:10D7200011603F200EE0B0F90C20002A314A03DAE4
:10D73000136823F0807377E21168304E41F08071F6
:10D74000116040200022326031680F064FF0C001A6
:10D7500048BF3260C6F88410F2644FF6FF710022B1
:10D760008B4206D9072A02D001325B08F8E74FF650
:10D77000FF73A189244FB36092B2C90627F8152020
:10D7800044BF42F4805227F8152023681F4A42F80C
:10D79000253053B11E4B617953F82520FEF7E4FC88
:10D7A00037F8153043F0480303E037F8153043F0FD
:10D7B000080327F8153037F81530C3F30B039BB275
:10D7C0003360BDE8F88F00BF3880044010900440FB
:10D7D0000CB004401C9004400090044004900440AD
:10D7E000008003403C80044020900440249004408A
:10D7F00000900340308004402C90044000800B4097
:10D800000C800440489004405083FF1F3883FF1F62
:10D81000A0EB03008368190608D5837D002B40F038
:10D820004B829B4B1A6822F480521A60A37D002B16
:10D8300040F04282964B1A6842F480521A60A36804
:10D8400013F001060AD013F0020F14BF4026002681
:10D850005A0703D4002E14BF6026202613F0080FA9
:10D8600018BFA18A8B4A18BF118013F4407F43D0A0
:10D87000002382F82230E57D6D0105F1804505F534
:10D8800010450222AA80AB8240F20113EB80E368CC
:10D890002B602368AA6083B1A168CF0548BF062228
:10D8A000AA83A27D7C49E07D41F822307B4B6179DF
:10D8B00098547B4AFEF758FC00E0AB83754B2B6114
:10D8C0000023AB6123695A425B08EA60EB839AB29A
:10D8D000744BEA821A6842F002021A60E37D03F197
:10D8E000804303F50433B0221A70E27D6E4B0121B0
:10D8F00091401A680A431A60A3685806654B48BFEE
:10D9000046F0800683F82160BDE8F88F8268877949
:10D91000C37C12F0007F0AD00BB9624B03E0012BED
:10D9200040F0CA81614B1A6822F00062C3E12BB15A
:10D93000012B40F0C1813A205D4D01E05D4D392061
:10D94000910200F1F280120253D50BB9554B02E05F
:10D95000012B04D1554B1A6842F000621A60A3688B
:10D96000DAB2AA60A27C13F0805F02F0070218BF4F
:10D9700042F01002EA601A0A02F00101DE02296296
:10D980002AD58721696229680906FCD5E96CAE6C45
:10D990000E44696C0E44296C0E44E96B0E44A96B6D
:10D9A0003144490841F40041E962AE6EE96E0E442B
:10D9B000696E0E44296E0E44E96D0E44A96D314422
:10D9C000490841F400412963696A21F080016962D4
:10D9D000296821F08001296002F041022A62A27CBC
:10D9E0001E01C2F302126A6203D56B6A43F0080398
:10D9F0006B62A368590240F198801C2F00F05C8193
:10DA00001F2F00F25981A7F11802D2B2012A40F269
:10DA100053815A0108D5032F04D9A7F11A02D2B2B3
:10DA2000032A01D847F0200713F0006C7CD113F0D3
:10DA3000C04F22686BD0296A41F00401296294F832
:10DA40002460760106F1804606F510460221B18277
:10DA500005F11000A6F804C040F2011C3060A6F8E1
:10DA600006C0B16072B35B004ABF0623B183B383C3
:10DA7000E37C114994F8240041F823200F4A61798E
:10DA8000D0540F4A52F82320FEF76EFB1BE000BF74
:10DA90002C80044000C00C404C83FF1F2C83FF1FD0
:10DAA000BDB903003C8004400C800040308004403D
:10DAB00000B00B4000B003406C86FF1F5086FF1F74
:10DAC0003CEC0300B283E36933610023F360236A13
:10DAD0005A425B08B261F3839AB2784BF2821A68B9
:10DAE00042F002021A6094F82430E27C03F1804391
:10DAF00003F50433283262F07F021A7094F8242070
:10DB00006F4B012191401A680A431A600CE05AB128
:10DB1000E37C6C4941F823206B4A617952F8232059
:10DB2000FEF722FB47F040072F60A268D60140F1C4
:10DB3000C380A369002B00F0BF80900207D42A683D
:10DB400012F0400F03D12A6812F0800FFAE72A6919
:10DB50001A80BDE8F88F90F8213090F820201B0241
